{
	"data": {
		"bytecode": {
			"linkReferences": {},
			"object": "60806040526702c68af0bb140000600155670429d069189e0000600255610027426078610059565b6003556005805461ffff1916905534801561004157600080fd5b50600080546001600160a01b0319163317905561007f565b6000821982111561007a57634e487b7160e01b600052601160045260246000fd5b500190565b61080c8061008e6000396000f3fe6080604052600436106100e85760003560e01c8063883f3d961161008a578063ac9a515111610059578063ac9a515114610257578063b5545a3c1461026c578063b8e53ae714610274578063f203644a1461029457600080fd5b8063883f3d96146101b05780638da5cb5b146101dd578063a0296c1714610215578063a14fd5431461022b57600080fd5b80633125e46e116100c65780633125e46e1461014d578063410085df146101605780634d9b3735146101735780635c975abb1461018657600080fd5b806302329a29146100ed5780630b97bc861461010f578063105c25b214610138575b600080fd5b3480156100f957600080fd5b5061010d61010836600461067c565b6102aa565b005b34801561011b57600080fd5b5061012560035481565b6040519081526020015b60405180910390f35b34801561014457600080fd5b5061010d61030d565b61010d61015b3660046106a5565b610377565b61010d61016e3660046106da565b61047e565b34801561017f57600080fd5b5047610125565b34801561019257600080fd5b506005546101a09060ff1681565b604051901515815260200161012f565b3480156101bc57600080fd5b506101256101cb366004610704565b60046020526000908152604090205481565b3480156101e957600080fd5b506000546101fd906001600160a01b031681565b6040516001600160a01b03909116815260200161012f565b34801561022157600080fd5b5061012560025481565b34801561023757600080fd5b5060055461024a90610100900460ff1681565b60405161012f9190610735565b34801561026357600080fd5b5061010d610580565b61010d6105e7565b34801561028057600080fd5b5061010d61028f36600461075d565b610653565b3480156102a057600080fd5b5061012560015481565b6000546001600160a01b031633146102fa5760405162461bcd60e51b815260206004820152600e60248201526d4e6f7420746865206f776e65722160901b60448201526064015b60405180910390fd5b6005805460ff1916911515919091179055565b600180600554610100900460ff16600281111561032c5761032c61071f565b146103495760405162461bcd60e51b81526004016102f19061077e565b600354421161036a5760405162461bcd60e51b81526004016102f1906107ad565b6103746002610653565b50565b600154341480610388575060025434145b6103ce5760405162461bcd60e51b81526020600482015260176024820152764e6f742074686520636f727265637420616d6f756e742160481b60448201526064016102f1565b600080600554610100900460ff1660028111156103ed576103ed61071f565b1461040a5760405162461bcd60e51b81526004016102f19061077e565b600354421161042b5760405162461bcd60e51b81526004016102f1906107ad565b60055460ff161561043b57600080fd5b6104456001610653565b60405182815233907f0f2e0ab740001cdd543543559693014dedb0c078b2f7f7a8fcc0695b86d861879060200160405180910390a25050565b6000546001600160a01b031633146104c95760405162461bcd60e51b815260206004820152600e60248201526d4e6f7420746865206f776e65722160901b60448201526064016102f1565b6001543414806104da575060025434145b6105205760405162461bcd60e51b81526020600482015260176024820152764e6f742074686520636f727265637420616d6f756e742160481b60448201526064016102f1565b804710156105645760405162461bcd60e51b81526020600482015260116024820152704e6f7420656e6f7567682066756e64732160781b60448201526064016102f1565b6001600160a01b03909116600090815260046020526040902055565b600280600554610100900460ff16600281111561059f5761059f61071f565b146105bc5760405162461bcd60e51b81526004016102f19061077e565b60035442116105dd5760405162461bcd60e51b81526004016102f1906107ad565b6103746000610653565b33600081815260046020526040808220805490839055905190929083908381818185875af1925050503d806000811461063c576040519150601f19603f3d011682016040523d82523d6000602084013e610641565b606091505b505090508061064f57600080fd5b5050565b6005805482919061ff0019166101008360028111156106745761067461071f565b021790555050565b60006020828403121561068e57600080fd5b8135801515811461069e57600080fd5b9392505050565b6000602082840312156106b757600080fd5b5035919050565b80356001600160a01b03811681146106d557600080fd5b919050565b600080604083850312156106ed57600080fd5b6106f6836106be565b946020939093013593505050565b60006020828403121561071657600080fd5b61069e826106be565b634e487b7160e01b600052602160045260246000fd5b602081016003831061075757634e487b7160e01b600052602160045260246000fd5b91905290565b60006020828403121561076f57600080fd5b81356003811061069e57600080fd5b6020808252601590820152744e6f7420617420636f72726563742073746167652160581b604082015260600190565b6020808252600f908201526e4e6f74206f70656e6564207965742160881b60408201526060019056fea26469706673582212203681a3fa7f9b2d09b314bcf324e96880b3a7a213870bccba68f99d9b3334abc964736f6c634300080c0033",
			"opcodes": "PUSH1 0x80 PUSH1 0x40 MSTORE PUSH8 0x2C68AF0BB140000 PUSH1 0x1 SSTORE PUSH8 0x429D069189E0000 PUSH1 0x2 SSTORE PUSH2 0x27 TIMESTAMP PUSH1 0x78 PUSH2 0x59 JUMP JUMPDEST PUSH1 0x3 SSTORE PUSH1 0x5 DUP1 SLOAD PUSH2 0xFFFF NOT AND SWAP1 SSTORE CALLVALUE DUP1 ISZERO PUSH2 0x41 JUMPI PUSH1 0x0 DUP1 REVERT JUMPDEST POP PUSH1 0x0 DUP1 SLOAD PUSH1 0x1 PUSH1 0x1 PUSH1 0xA0 SHL SUB NOT AND CALLER OR SWAP1 SSTORE PUSH2 0x7F JUMP JUMPDEST PUSH1 0x0 DUP3 NOT DUP3 GT ISZERO PUSH2 0x7A JUMPI PUSH4 0x4E487B71 PUSH1 0xE0 SHL PUSH1 0x0 MSTORE PUSH1 0x11 PUSH1 0x4 MSTORE PUSH1 0x24 PUSH1 0x0 REVERT JUMPDEST POP ADD SWAP1 JUMP JUMPDEST PUSH2 0x80C DUP1 PUSH2 0x8E PUSH1 0x0 CODECOPY PUSH1 0x0 RETURN INVALID PUSH1 0x80 PUSH1 0x40 MSTORE PUSH1 0x4 CALLDATASIZE LT PUSH2 0xE8 JUMPI PUSH1 0x0 CALLDATALOAD PUSH1 0xE0 SHR DUP1 PUSH4 0x883F3D96 GT PUSH2 0x8A JUMPI DUP1 PUSH4 0xAC9A5151 GT PUSH2 0x59 JUMPI DUP1 PUSH4 0xAC9A5151 EQ PUSH2 0x257 JUMPI DUP1 PUSH4 0xB5545A3C EQ PUSH2 0x26C JUMPI DUP1 PUSH4 0xB8E53AE7 EQ PUSH2 0x274 JUMPI DUP1 PUSH4 0xF203644A EQ PUSH2 0x294 JUMPI PUSH1 0x0 DUP1 REVERT JUMPDEST DUP1 PUSH4 0x883F3D96 EQ PUSH2 0x1B0 JUMPI DUP1 PUSH4 0x8DA5CB5B EQ PUSH2 0x1DD JUMPI DUP1 PUSH4 0xA0296C17 EQ PUSH2 0x215 JUMPI DUP1 PUSH4 0xA14FD543 EQ PUSH2 0x22B JUMPI PUSH1 0x0 DUP1 REVERT JUMPDEST DUP1 PUSH4 0x3125E46E GT PUSH2 0xC6 JUMPI DUP1 PUSH4 0x3125E46E EQ PUSH2 0x14D JUMPI DUP1 PUSH4 0x410085DF EQ PUSH2 0x160 JUMPI DUP1 PUSH4 0x4D9B3735 EQ PUSH2 0x173 JUMPI DUP1 PUSH4 0x5C975ABB EQ PUSH2 0x186 JUMPI PUSH1 0x0 DUP1 REVERT JUMPDEST DUP1 PUSH4 0x2329A29 EQ PUSH2 0xED JUMPI DUP1 PUSH4 0xB97BC86 EQ PUSH2 0x10F JUMPI DUP1 PUSH4 0x105C25B2 EQ PUSH2 0x138 JUMPI JUMPDEST PUSH1 0x0 DUP1 REVERT JUMPDEST CALLVALUE DUP1 ISZERO PUSH2 0xF9 JUMPI PUSH1 0x0 DUP1 REVERT JUMPDEST POP PUSH2 0x10D PUSH2 0x108 CALLDATASIZE PUSH1 0x4 PUSH2 0x67C JUMP JUMPDEST PUSH2 0x2AA JUMP JUMPDEST STOP JUMPDEST CALLVALUE DUP1 ISZERO PUSH2 0x11B JUMPI PUSH1 0x0 DUP1 REVERT JUMPDEST POP PUSH2 0x125 PUSH1 0x3 SLOAD DUP2 JUMP JUMPDEST PUSH1 0x40 MLOAD SWAP1 DUP2 MSTORE PUSH1 0x20 ADD JUMPDEST PUSH1 0x40 MLOAD DUP1 SWAP2 SUB SWAP1 RETURN JUMPDEST CALLVALUE DUP1 ISZERO PUSH2 0x144 JUMPI PUSH1 0x0 DUP1 REVERT JUMPDEST POP PUSH2 0x10D PUSH2 0x30D JUMP JUMPDEST PUSH2 0x10D PUSH2 0x15B CALLDATASIZE PUSH1 0x4 PUSH2 0x6A5 JUMP JUMPDEST PUSH2 0x377 JUMP JUMPDEST PUSH2 0x10D PUSH2 0x16E CALLDATASIZE PUSH1 0x4 PUSH2 0x6DA JUMP JUMPDEST PUSH2 0x47E JUMP JUMPDEST CALLVALUE DUP1 ISZERO PUSH2 0x17F JUMPI PUSH1 0x0 DUP1 REVERT JUMPDEST POP SELFBALANCE PUSH2 0x125 JUMP JUMPDEST CALLVALUE DUP1 ISZERO PUSH2 0x192 JUMPI PUSH1 0x0 DUP1 REVERT JUMPDEST POP PUSH1 0x5 SLOAD PUSH2 0x1A0 SWAP1 PUSH1 0xFF AND DUP2 JUMP JUMPDEST PUSH1 0x40 MLOAD SWAP1 ISZERO ISZERO DUP2 MSTORE PUSH1 0x20 ADD PUSH2 0x12F JUMP JUMPDEST CALLVALUE DUP1 ISZERO PUSH2 0x1BC JUMPI PUSH1 0x0 DUP1 REVERT JUMPDEST POP PUSH2 0x125 PUSH2 0x1CB CALLDATASIZE PUSH1 0x4 PUSH2 0x704 JUMP JUMPDEST PUSH1 0x4 PUSH1 0x20 MSTORE PUSH1 0x0 SWAP1 DUP2 MSTORE PUSH1 0x40 SWAP1 KECCAK256 SLOAD DUP2 JUMP JUMPDEST CALLVALUE DUP1 ISZERO PUSH2 0x1E9 JUMPI PUSH1 0x0 DUP1 REVERT JUMPDEST POP PUSH1 0x0 SLOAD PUSH2 0x1FD SWAP1 PUSH1 0x1 PUSH1 0x1 PUSH1 0xA0 SHL SUB AND DUP2 JUMP JUMPDEST PUSH1 0x40 MLOAD PUSH1 0x1 PUSH1 0x1 PUSH1 0xA0 SHL SUB SWAP1 SWAP2 AND DUP2 MSTORE PUSH1 0x20 ADD PUSH2 0x12F JUMP JUMPDEST CALLVALUE DUP1 ISZERO PUSH2 0x221 JUMPI PUSH1 0x0 DUP1 REVERT JUMPDEST POP PUSH2 0x125 PUSH1 0x2 SLOAD DUP2 JUMP JUMPDEST CALLVALUE DUP1 ISZERO PUSH2 0x237 JUMPI PUSH1 0x0 DUP1 REVERT JUMPDEST POP PUSH1 0x5 SLOAD PUSH2 0x24A SWAP1 PUSH2 0x100 SWAP1 DIV PUSH1 0xFF AND DUP2 JUMP JUMPDEST PUSH1 0x40 MLOAD PUSH2 0x12F SWAP2 SWAP1 PUSH2 0x735 JUMP JUMPDEST CALLVALUE DUP1 ISZERO PUSH2 0x263 JUMPI PUSH1 0x0 DUP1 REVERT JUMPDEST POP PUSH2 0x10D PUSH2 0x580 JUMP JUMPDEST PUSH2 0x10D PUSH2 0x5E7 JUMP JUMPDEST CALLVALUE DUP1 ISZERO PUSH2 0x280 JUMPI PUSH1 0x0 DUP1 REVERT JUMPDEST POP PUSH2 0x10D PUSH2 0x28F CALLDATASIZE PUSH1 0x4 PUSH2 0x75D JUMP JUMPDEST PUSH2 0x653 JUMP JUMPDEST CALLVALUE DUP1 ISZERO PUSH2 0x2A0 JUMPI PUSH1 0x0 DUP1 REVERT JUMPDEST POP PUSH2 0x125 PUSH1 0x1 SLOAD DUP2 JUMP JUMPDEST PUSH1 0x0 SLOAD PUSH1 0x1 PUSH1 0x1 PUSH1 0xA0 SHL SUB AND CALLER EQ PUSH2 0x2FA JUMPI PUSH1 0x40 MLOAD PUSH3 0x461BCD PUSH1 0xE5 SHL DUP2 MSTORE PUSH1 0x20 PUSH1 0x4 DUP3 ADD MSTORE PUSH1 0xE PUSH1 0x24 DUP3 ADD MSTORE PUSH14 0x4E6F7420746865206F776E657221 PUSH1 0x90 SHL PUSH1 0x44 DUP3 ADD MSTORE PUSH1 0x64 ADD JUMPDEST PUSH1 0x40 MLOAD DUP1 SWAP2 SUB SWAP1 REVERT JUMPDEST PUSH1 0x5 DUP1 SLOAD PUSH1 0xFF NOT AND SWAP2 ISZERO ISZERO SWAP2 SWAP1 SWAP2 OR SWAP1 SSTORE JUMP JUMPDEST PUSH1 0x1 DUP1 PUSH1 0x5 SLOAD PUSH2 0x100 SWAP1 DIV PUSH1 0xFF AND PUSH1 0x2 DUP2 GT ISZERO PUSH2 0x32C JUMPI PUSH2 0x32C PUSH2 0x71F JUMP JUMPDEST EQ PUSH2 0x349 JUMPI PUSH1 0x40 MLOAD PUSH3 0x461BCD PUSH1 0xE5 SHL DUP2 MSTORE PUSH1 0x4 ADD PUSH2 0x2F1 SWAP1 PUSH2 0x77E JUMP JUMPDEST PUSH1 0x3 SLOAD TIMESTAMP GT PUSH2 0x36A JUMPI PUSH1 0x40 MLOAD PUSH3 0x461BCD PUSH1 0xE5 SHL DUP2 MSTORE PUSH1 0x4 ADD PUSH2 0x2F1 SWAP1 PUSH2 0x7AD JUMP JUMPDEST PUSH2 0x374 PUSH1 0x2 PUSH2 0x653 JUMP JUMPDEST POP JUMP JUMPDEST PUSH1 0x1 SLOAD CALLVALUE EQ DUP1 PUSH2 0x388 JUMPI POP PUSH1 0x2 SLOAD CALLVALUE EQ JUMPDEST PUSH2 0x3CE JUMPI PUSH1 0x40 MLOAD PUSH3 0x461BCD PUSH1 0xE5 SHL DUP2 MSTORE PUSH1 0x20 PUSH1 0x4 DUP3 ADD MSTORE PUSH1 0x17 PUSH1 0x24 DUP3 ADD MSTORE PUSH23 0x4E6F742074686520636F727265637420616D6F756E7421 PUSH1 0x48 SHL PUSH1 0x44 DUP3 ADD MSTORE PUSH1 0x64 ADD PUSH2 0x2F1 JUMP JUMPDEST PUSH1 0x0 DUP1 PUSH1 0x5 SLOAD PUSH2 0x100 SWAP1 DIV PUSH1 0xFF AND PUSH1 0x2 DUP2 GT ISZERO PUSH2 0x3ED JUMPI PUSH2 0x3ED PUSH2 0x71F JUMP JUMPDEST EQ PUSH2 0x40A JUMPI PUSH1 0x40 MLOAD PUSH3 0x461BCD PUSH1 0xE5 SHL DUP2 MSTORE PUSH1 0x4 ADD PUSH2 0x2F1 SWAP1 PUSH2 0x77E JUMP JUMPDEST PUSH1 0x3 SLOAD TIMESTAMP GT PUSH2 0x42B JUMPI PUSH1 0x40 MLOAD PUSH3 0x461BCD PUSH1 0xE5 SHL DUP2 MSTORE PUSH1 0x4 ADD PUSH2 0x2F1 SWAP1 PUSH2 0x7AD JUMP JUMPDEST PUSH1 0x5 SLOAD PUSH1 0xFF AND ISZERO PUSH2 0x43B JUMPI PUSH1 0x0 DUP1 REVERT JUMPDEST PUSH2 0x445 PUSH1 0x1 PUSH2 0x653 JUMP JUMPDEST PUSH1 0x40 MLOAD DUP3 DUP2 MSTORE CALLER SWAP1 PUSH32 0xF2E0AB740001CDD543543559693014DEDB0C078B2F7F7A8FCC0695B86D86187 SWAP1 PUSH1 0x20 ADD PUSH1 0x40 MLOAD DUP1 SWAP2 SUB SWAP1 LOG2 POP POP JUMP JUMPDEST PUSH1 0x0 SLOAD PUSH1 0x1 PUSH1 0x1 PUSH1 0xA0 SHL SUB AND CALLER EQ PUSH2 0x4C9 JUMPI PUSH1 0x40 MLOAD PUSH3 0x461BCD PUSH1 0xE5 SHL DUP2 MSTORE PUSH1 0x20 PUSH1 0x4 DUP3 ADD MSTORE PUSH1 0xE PUSH1 0x24 DUP3 ADD MSTORE PUSH14 0x4E6F7420746865206F776E657221 PUSH1 0x90 SHL PUSH1 0x44 DUP3 ADD MSTORE PUSH1 0x64 ADD PUSH2 0x2F1 JUMP JUMPDEST PUSH1 0x1 SLOAD CALLVALUE EQ DUP1 PUSH2 0x4DA JUMPI POP PUSH1 0x2 SLOAD CALLVALUE EQ JUMPDEST PUSH2 0x520 JUMPI PUSH1 0x40 MLOAD PUSH3 0x461BCD PUSH1 0xE5 SHL DUP2 MSTORE PUSH1 0x20 PUSH1 0x4 DUP3 ADD MSTORE PUSH1 0x17 PUSH1 0x24 DUP3 ADD MSTORE PUSH23 0x4E6F742074686520636F727265637420616D6F756E7421 PUSH1 0x48 SHL PUSH1 0x44 DUP3 ADD MSTORE PUSH1 0x64 ADD PUSH2 0x2F1 JUMP JUMPDEST DUP1 SELFBALANCE LT ISZERO PUSH2 0x564 JUMPI PUSH1 0x40 MLOAD PUSH3 0x461BCD PUSH1 0xE5 SHL DUP2 MSTORE PUSH1 0x20 PUSH1 0x4 DUP3 ADD MSTORE PUSH1 0x11 PUSH1 0x24 DUP3 ADD MSTORE PUSH17 0x4E6F7420656E6F7567682066756E647321 PUSH1 0x78 SHL PUSH1 0x44 DUP3 ADD MSTORE PUSH1 0x64 ADD PUSH2 0x2F1 JUMP JUMPDEST PUSH1 0x1 PUSH1 0x1 PUSH1 0xA0 SHL SUB SWAP1 SWAP2 AND PUSH1 0x0 SWAP1 DUP2 MSTORE PUSH1 0x4 PUSH1 0x20 MSTORE PUSH1 0x40 SWAP1 KECCAK256 SSTORE JUMP JUMPDEST PUSH1 0x2 DUP1 PUSH1 0x5 SLOAD PUSH2 0x100 SWAP1 DIV PUSH1 0xFF AND PUSH1 0x2 DUP2 GT ISZERO PUSH2 0x59F JUMPI PUSH2 0x59F PUSH2 0x71F JUMP JUMPDEST EQ PUSH2 0x5BC JUMPI PUSH1 0x40 MLOAD PUSH3 0x461BCD PUSH1 0xE5 SHL DUP2 MSTORE PUSH1 0x4 ADD PUSH2 0x2F1 SWAP1 PUSH2 0x77E JUMP JUMPDEST PUSH1 0x3 SLOAD TIMESTAMP GT PUSH2 0x5DD JUMPI PUSH1 0x40 MLOAD PUSH3 0x461BCD PUSH1 0xE5 SHL DUP2 MSTORE PUSH1 0x4 ADD PUSH2 0x2F1 SWAP1 PUSH2 0x7AD JUMP JUMPDEST PUSH2 0x374 PUSH1 0x0 PUSH2 0x653 JUMP JUMPDEST CALLER PUSH1 0x0 DUP2 DUP2 MSTORE PUSH1 0x4 PUSH1 0x20 MSTORE PUSH1 0x40 DUP1 DUP3 KECCAK256 DUP1 SLOAD SWAP1 DUP4 SWAP1 SSTORE SWAP1 MLOAD SWAP1 SWAP3 SWAP1 DUP4 SWAP1 DUP4 DUP2 DUP2 DUP2 DUP6 DUP8 GAS CALL SWAP3 POP POP POP RETURNDATASIZE DUP1 PUSH1 0x0 DUP2 EQ PUSH2 0x63C JUMPI PUSH1 0x40 MLOAD SWAP2 POP PUSH1 0x1F NOT PUSH1 0x3F RETURNDATASIZE ADD AND DUP3 ADD PUSH1 0x40 MSTORE RETURNDATASIZE DUP3 MSTORE RETURNDATASIZE PUSH1 0x0 PUSH1 0x20 DUP5 ADD RETURNDATACOPY PUSH2 0x641 JUMP JUMPDEST PUSH1 0x60 SWAP2 POP JUMPDEST POP POP SWAP1 POP DUP1 PUSH2 0x64F JUMPI PUSH1 0x0 DUP1 REVERT JUMPDEST POP POP JUMP JUMPDEST PUSH1 0x5 DUP1 SLOAD DUP3 SWAP2 SWAP1 PUSH2 0xFF00 NOT AND PUSH2 0x100 DUP4 PUSH1 0x2 DUP2 GT ISZERO PUSH2 0x674 JUMPI PUSH2 0x674 PUSH2 0x71F JUMP JUMPDEST MUL OR SWAP1 SSTORE POP POP JUMP JUMPDEST PUSH1 0x0 PUSH1 0x20 DUP3 DUP5 SUB SLT ISZERO PUSH2 0x68E JUMPI PUSH1 0x0 DUP1 REVERT JUMPDEST DUP2 CALLDATALOAD DUP1 ISZERO ISZERO DUP2 EQ PUSH2 0x69E JUMPI PUSH1 0x0 DUP1 REVERT JUMPDEST SWAP4 SWAP3 POP POP POP JUMP JUMPDEST PUSH1 0x0 PUSH1 0x20 DUP3 DUP5 SUB SLT ISZERO PUSH2 0x6B7 JUMPI PUSH1 0x0 DUP1 REVERT JUMPDEST POP CALLDATALOAD SWAP2 SWAP1 POP JUMP JUMPDEST DUP1 CALLDATALOAD PUSH1 0x1 PUSH1 0x1 PUSH1 0xA0 SHL SUB DUP2 AND DUP2 EQ PUSH2 0x6D5 JUMPI PUSH1 0x0 DUP1 REVERT JUMPDEST SWAP2 SWAP1 POP JUMP JUMPDEST PUSH1 0x0 DUP1 PUSH1 0x40 DUP4 DUP6 SUB SLT ISZERO PUSH2 0x6ED JUMPI PUSH1 0x0 DUP1 REVERT JUMPDEST PUSH2 0x6F6 DUP4 PUSH2 0x6BE JUMP JUMPDEST SWAP5 PUSH1 0x20 SWAP4 SWAP1 SWAP4 ADD CALLDATALOAD SWAP4 POP POP POP JUMP JUMPDEST PUSH1 0x0 PUSH1 0x20 DUP3 DUP5 SUB SLT ISZERO PUSH2 0x716 JUMPI PUSH1 0x0 DUP1 REVERT JUMPDEST PUSH2 0x69E DUP3 PUSH2 0x6BE JUMP JUMPDEST PUSH4 0x4E487B71 PUSH1 0xE0 SHL PUSH1 0x0 MSTORE PUSH1 0x21 PUSH1 0x4 MSTORE PUSH1 0x24 PUSH1 0x0 REVERT JUMPDEST PUSH1 0x20 DUP2 ADD PUSH1 0x3 DUP4 LT PUSH2 0x757 JUMPI PUSH4 0x4E487B71 PUSH1 0xE0 SHL PUSH1 0x0 MSTORE PUSH1 0x21 PUSH1 0x4 MSTORE PUSH1 0x24 PUSH1 0x0 REVERT JUMPDEST SWAP2 SWAP1 MSTORE SWAP1 JUMP JUMPDEST PUSH1 0x0 PUSH1 0x20 DUP3 DUP5 SUB SLT ISZERO PUSH2 0x76F JUMPI PUSH1 0x0 DUP1 REVERT JUMPDEST DUP2 CALLDATALOAD PUSH1 0x3 DUP2 LT PUSH2 0x69E JUMPI PUSH1 0x0 DUP1 REVERT JUMPDEST PUSH1 0x20 DUP1 DUP3 MSTORE PUSH1 0x15 SWAP1 DUP3 ADD MSTORE PUSH21 0x4E6F7420617420636F727265637420737461676521 PUSH1 0x58 SHL PUSH1 0x40 DUP3 ADD MSTORE PUSH1 0x60 ADD SWAP1 JUMP JUMPDEST PUSH1 0x20 DUP1 DUP3 MSTORE PUSH1 0xF SWAP1 DUP3 ADD MSTORE PUSH15 0x4E6F74206F70656E65642079657421 PUSH1 0x88 SHL PUSH1 0x40 DUP3 ADD MSTORE PUSH1 0x60 ADD SWAP1 JUMP INVALID LOG2 PUSH5 0x6970667358 0x22 SLT KECCAK256 CALLDATASIZE DUP2 LOG3 STATICCALL PUSH32 0x9B2D09B314BCF324E96880B3A7A213870BCCBA68F99D9B3334ABC964736F6C63 NUMBER STOP ADDMOD 0xC STOP CALLER "
		},
		"gasEstimates": {
			"creation": {
				"codeDepositCost": "412000",
				"executionCost": "115298",
				"totalCost": "527298"
			},
			"external": {
				"buyPizza(uint256)": "36625",
				"claimRefund()": "infinite",
				"getFunds()": "250",
				"madePizza()": "28803",
				"normalCost()": "2372",
				"owner()": "2382",
				"pause(bool)": "26658",
				"paused()": "2399",
				"pickupPizza()": "28757",
				"pizzaShopStage()": "2451",
				"refund(address,uint256)": "28954",
				"sausageCost()": "2351",
				"startDate()": "2330",
				"updateStage(uint8)": "24586",
				"userRefunds(address)": "2531"
			}
		},
		"methodIdentifiers": {
			"buyPizza(uint256)": "3125e46e",
			"claimRefund()": "b5545a3c",
			"getFunds()": "4d9b3735",
			"madePizza()": "105c25b2",
			"normalCost()": "f203644a",
			"owner()": "8da5cb5b",
			"pause(bool)": "02329a29",
			"paused()": "5c975abb",
			"pickupPizza()": "ac9a5151",
			"pizzaShopStage()": "a14fd543",
			"refund(address,uint256)": "410085df",
			"sausageCost()": "a0296c17",
			"startDate()": "0b97bc86",
			"updateStage(uint8)": "b8e53ae7",
			"userRefunds(address)": "883f3d96"
		}
	},
	"abi": [
		{
			"inputs": [],
			"stateMutability": "nonpayable",
			"type": "constructor"
		},
		{
			"anonymous": false,
			"inputs": [
				{
					"indexed": true,
					"internalType": "address",
					"name": "_from",
					"type": "address"
				},
				{
					"indexed": false,
					"internalType": "uint256",
					"name": "cost",
					"type": "uint256"
				}
			],
			"name": "BoughtPizza",
			"type": "event"
		},
		{
			"inputs": [
				{
					"internalType": "uint256",
					"name": "_price",
					"type": "uint256"
				}
			],
			"name": "buyPizza",
			"outputs": [],
			"stateMutability": "payable",
			"type": "function"
		},
		{
			"inputs": [],
			"name": "claimRefund",
			"outputs": [],
			"stateMutability": "payable",
			"type": "function"
		},
		{
			"inputs": [],
			"name": "getFunds",
			"outputs": [
				{
					"internalType": "uint256",
					"name": "",
					"type": "uint256"
				}
			],
			"stateMutability": "view",
			"type": "function"
		},
		{
			"inputs": [],
			"name": "madePizza",
			"outputs": [],
			"stateMutability": "nonpayable",
			"type": "function"
		},
		{
			"inputs": [],
			"name": "normalCost",
			"outputs": [
				{
					"internalType": "uint256",
					"name": "",
					"type": "uint256"
				}
			],
			"stateMutability": "view",
			"type": "function"
		},
		{
			"inputs": [],
			"name": "owner",
			"outputs": [
				{
					"internalType": "address",
					"name": "",
					"type": "address"
				}
			],
			"stateMutability": "view",
			"type": "function"
		},
		{
			"inputs": [
				{
					"internalType": "bool",
					"name": "_state",
					"type": "bool"
				}
			],
			"name": "pause",
			"outputs": [],
			"stateMutability": "nonpayable",
			"type": "function"
		},
		{
			"inputs": [],
			"name": "paused",
			"outputs": [
				{
					"internalType": "bool",
					"name": "",
					"type": "bool"
				}
			],
			"stateMutability": "view",
			"type": "function"
		},
		{
			"inputs": [],
			"name": "pickupPizza",
			"outputs": [],
			"stateMutability": "nonpayable",
			"type": "function"
		},
		{
			"inputs": [],
			"name": "pizzaShopStage",
			"outputs": [
				{
					"internalType": "enum PizzaShop.Stages",
					"name": "",
					"type": "uint8"
				}
			],
			"stateMutability": "view",
			"type": "function"
		},
		{
			"inputs": [
				{
					"internalType": "address",
					"name": "_to",
					"type": "address"
				},
				{
					"internalType": "uint256",
					"name": "_cost",
					"type": "uint256"
				}
			],
			"name": "refund",
			"outputs": [],
			"stateMutability": "payable",
			"type": "function"
		},
		{
			"inputs": [],
			"name": "sausageCost",
			"outputs": [
				{
					"internalType": "uint256",
					"name": "",
					"type": "uint256"
				}
			],
			"stateMutability": "view",
			"type": "function"
		},
		{
			"inputs": [],
			"name": "startDate",
			"outputs": [
				{
					"internalType": "uint256",
					"name": "",
					"type": "uint256"
				}
			],
			"stateMutability": "view",
			"type": "function"
		},
		{
			"inputs": [
				{
					"internalType": "enum PizzaShop.Stages",
					"name": "_stage",
					"type": "uint8"
				}
			],
			"name": "updateStage",
			"outputs": [],
			"stateMutability": "nonpayable",
			"type": "function"
		},
		{
			"inputs": [
				{
					"internalType": "address",
					"name": "",
					"type": "address"
				}
			],
			"name": "userRefunds",
			"outputs": [
				{
					"internalType": "uint256",
					"name": "",
					"type": "uint256"
				}
			],
			"stateMutability": "view",
			"type": "function"
		}
	]
}